:020000040800F2
:10000000002800209D1A00082D1A0008331A000845
:10001000391A00083F1A0008451A000800000000BD
:100020000000000000000000000000004B1A000863
:10003000571A000800000000631A00086F1A000831
:10004000E51A0008E51A0008E51A0008E51A000894
:10005000E51A0008E51A0008E51A0008E51A000884
:10006000E51A0008E51A0008E51A0008E51A000874
:10007000E51A0008E51A0008E51A0008E51A000864
:10008000E51A0008E51A0008E51A0008E51A000854
:10009000E51A0008E51A0008E51A0008E51A000844
:1000A000E51A0008E51A0008E51A0008E51A000834
:1000B0007D1A0008E51A000800000000E51A000893
:1000C000E51A00080000000000000000E51A000822
:1000D00000000000E51A0008E51A00080000000012
:1000E000E51A0008E51A0008E51A000800000000FB
:1000F0000000000000000000000000000000000000
:0C01000000000000000000005FF808F1A3
:10010C0010B5054C237833B9044B13B10448AFF345
:10011C0000800123237010BD180000200000000097
:10012C003C31000808B5034B1BB103490348AFF33E
:10013C00008008BD000000001C0000203C310008BD
:10014C0080B582B000AF00237B609BE0524A7B6895
:10015C0013441978514A7B6813440A461A70504A62
:10016C007B68134419784C4A7B6813440A461A700E
:10017C007B68002B0BD101214A4801F099FF034603
:10018C001946474A7B6813440A461A701CE07B6880
:10019C00012B0BD10221434801F08AFF034619467B
:1001AC003F4A7B6813440A461A700DE07B68022BA9
:1001BC000AD104213B4801F07BFF03461946384A1B
:1001CC007B6813440A461A70354A7B6813441A78C4
:1001DC0031497B680B441B789A4223D1304A7B68A7
:1001EC0013441A782D497B680B441B789A4219D119
:1001FC002D4A7B6813441B78012B0AD1284A7B6853
:10020C0013441B78002B04D1284A7B68012142F847
:10021C002310234A7B6813441978234A7B681344C0
:10022C000A461A70204A7B6813441B78002B17D19E
:10023C001F4A7B6832F81330B3F5967F0AD21C4AFA
:10024C007B6832F81330013399B2194A7B6822F873
:10025C00131014E0174A7B68134401221A700EE045
:10026C00124A7B68002142F82310114A7B68002156
:10027C0022F813100F4A7B68134400221A707B6813
:10028C0001337B607B68022B7FF760AF00BF00BF40
:10029C000837BD4680BD00BF3C0000204000002058
:1002AC0038000020000C014034000020D800002051
:1002BC00480000204400002080B483B000AF786078
:1002CC00094A7B6852F82330012B06D1064A7B6819
:1002DC00002142F82310012300E0002318460C37BC
:1002EC00BD4680BC704700BFD800002080B483B0EE
:1002FC0000AF0346FB71FB79022B01D9002307E009
:10030C00FB79064AD35C002B0CBF01230023DBB224
:10031C0018460C37BD4680BC704700BF3400002027
:10032C0080B483B000AF0346FB71FB79022B01D97B
:10033C00FF2307E0FB79064AD35C012B0CBF01239A
:10034C000023DBB218460C37BD4680BC704700BF9B
:10035C004400002080B500AF884B1B78042B00F2C2
:10036C00FA8101A252F823F089030008DF03000888
:10037C00A9040008BD050008870600087F4B012270
:10038C001A7000F09FFE7E4B1B687E4A82FB0312A4
:10039C009211DB17D31A7C4A13607C4B1B68794A89
:1003AC0082FB03129211DB17D31A794A1360774B35
:1003BC001B68184601F090F94FF47A7001F0FCF9C3
:1003CC00C82001F015FA00F027FF724B00221A60CA
:1003DC00CAE1714B1B68184600F094FF0321012001
:1003EC0000F094FE6D4B1B68012B10D100F014FF34
:1003FC00694B1B680133684A1360674B1B68012B00
:10040C0002DD654B00221A60C82001F0F1F90020D2
:10041C00FFF752FF0346002B19D0584B05221A70D8
:10042C005F4B01221A60FA2001F0AAF9C82001F0F2
:10043C00DFF900F047FE524B1B68524A82FB031255
:10044C009211DB17D31A574A136000F035FF564B45
:10045C001B68012B40F081814B4B1B68013B4A4AC6
:10046C0013604B4B1B68013B494A1360484B1B689C
:10047C00002B0CD14D4B1B68424A82FB031292118C
:10048C00DB17D31A424A13603C4B02221A7000F05D
:10049C00C3FE4FF47A7001F08FF95EE13E4B1B689E
:1004AC00184600F02FFF0221012000F02FFE3B4BDD
:1004BC001B68012B10D100F0AFFE374B1B680133CA
:1004CC00354A1360344B1B68012B02DD324B002282
:1004DC001A60C82001F08CF90020FFF7EDFE0346EE
:1004EC00002B19D0254B05221A702D4B01221A60B6
:1004FC00FA2001F045F9C82001F07AF900F0E2FD8C
:10050C001F4B1B681F4A82FB03129211DB17D31A75
:10051C00244A136000F0D0FE234B1B68012B40F0E3
:10052C001E81194B1B68013B174A1360184B1B6843
:10053C00013B174A1360164B1B68002B16DC134B40
:10054C001B68104A82FB03129211DB17D31A0E4A56
:10055C0013600B4B1B680B4A82FB03129211DB17C7
:10056C00D31A0B4A1360054B03221A7000F054FE89
:10057C004FF47A7001F020F9F1E000BFE4000020A4
:10058C0000000020D34D6210640000200800002001
:10059C0068000020D40000206C000020B000002077
:1005AC005000002060000020C80000200400002043
:1005BC006E4B1B68184600F0A5FE0121032000F0CD
:1005CC00A5FD6B4B1B68012B10D100F025FE674B72
:1005DC001B680133654A1360644B1B68012B02DDF9
:1005EC00624B00221A60C82001F002F90020FFF7CC
:1005FC0063FE0346002B19D05E4B05221A705E4B2E
:10060C0001221A60FA2001F0BBF8C82001F0F0F8C2
:10061C0000F058FD594B1B68594A82FB031292118A
:10062C00DB17D31A574A136000F046FE564B1B6873
:10063C00012B40F09680554B1B68013B534A1360CD
:10064C00534B1B68013B524A1360504B1B68002BE9
:10065C000CDC504B1B684A4A82FB03129211DB17CD
:10066C00D31A4A4A1360434B04221A7000F0D4FD8B
:10067C004FF47A7001F0A0F873E03C4B1B681846FD
:10068C0000F040FE0121022000F040FD384B1B68B9
:10069C00012B10D100F0C0FD344B1B680133334AE1
:1006AC001360324B1B68012B02DD304B00221A60A9
:1006BC00C82001F09DF80020FFF7FEFD0346002B3B
:1006CC0019D02C4B05221A702B4B01221A60FA20E0
:1006DC0001F056F8C82001F08BF800F0F3FC274B22
:1006EC001B68274A82FB03129211DB17D31A254A87
:1006FC00136000F0E1FD244B1B68012B33D1234B1D
:10070C001B68013B214A1360214B1B68013B204AAB
:10071C0013601E4B1B68002B16DC184B1B68184A09
:10072C0082FB03129211DB17D31A184A13601A4B6F
:10073C001B68134A82FB03129211DB17D31A144A5B
:10074C0013600C4B01221A7000F066FD4FF47A70A6
:10075C0001F032F807E000BF06E000BF04E000BF84
:10076C0002E000BF00E000BF00BF80BD6C000020B5
:10077C00B0000020E4000020500000200000002009
:10078C00D34D621060000020C800002064000020DF
:10079C0068000020040000200800002080B500AF95
:1007AC00AC4B1B78053B052B00F2D88101A252F80B
:1007BC0023F000BFD9070008AB080008490900085E
:1007CC00E7090008890A0008E50A0008A24B1B6823
:1007DC00184600F00DFEA14B1B68012B10D100F048
:1007EC006BFD9D4B1B6801339B4A13609A4B1B6836
:1007FC00012B02DD984B00221A60C82000F0F8FF94
:10080C00974B01221A60974B00221A60964B0022DC
:10081C001A600020FFF750FD0346002B08D0934BC5
:10082C001B68934A136000F047FD8A4B06221A702E
:10083C000120FFF741FD0346002B02D0854B082217
:10084C001A700120FFF752FD0346002B18D001202F
:10085C00FFF766FD0346002B12D07E4B09221A705F
:10086C00834B1B680A33824A1360814B1B68632BD2
:10087C0002DD7F4B00221A604FF47A7000F064FFA7
:10088C000220FFF719FD0346002B00F06981714B24
:10089C000A221A7040F6B83000F03AFF60E1704B53
:1008AC0000221A606F4B01221A606F4B00221A60F3
:1008BC000020FFF701FD0346002B08D06D4B1B6891
:1008CC006B4A136000F0F8FC624B07221A7001208F
:1008DC00FFF7F2FC0346002B02D05E4B08221A7085
:1008EC000120FFF703FD0346002B18D00120FFF772
:1008FC0017FD0346002B0ED0564B09221A705C4B89
:10090C001B680A335A4A1360594B1B68632B02DD70
:10091C00574B00221A604FF47A7000F015FF02203A
:10092C00FFF7CAFC0346002B00F01C81494B0A223E
:10093C001A7040F6B83000F0EBFE13E1484B002281
:10094C001A60484B00221A60474B01221A600020A3
:10095C00FFF7B2FC0346002B08D0474B1B68444AF8
:10096C00136000F0A9FC3B4B05221A700120FFF725
:10097C00A3FC0346002B02D0364B08221A70012030
:10098C00FFF7B4FC0346002B18D00120FFF7C8FC7E
:10099C000346002B0ED02F4B09221A70344B1B68C8
:1009AC000A33334A1360324B1B68632B02DD304B26
:1009BC0000221A604FF47A7000F0C6FE0220FFF796
:1009CC007BFC0346002B00F0CF80224B0A221A70CE
:1009DC0040F6B83000F09CFEC6E0214B1B68012BA2
:1009EC000FD1234B1B680133214A1360204B1B682A
:1009FC00632B02DD1E4B00221A60164B05221A7067
:100A0C00B4E0184B1B68012B0FD1194B1B68013339
:100A1C00174A1360164B1B68632B02DD144B002224
:100A2C001A600C4B06221A70A0E00F4B1B68012BAE
:100A3C0040F09C800E4B1B6801330D4A13600C4B2D
:100A4C001B68632B02DD0A4B00221A60014B072244
:100A5C001A708BE0E400002070000020B000002031
:100A6C0054000020580000205C00002004000020EE
:100A7C006000002008000020000000203F4B1B6895
:100A8C00012B0BD13E4B1B680A333D4A13603C4B88
:100A9C001B68632B02DD3A4B00221A600120FFF722
:100AAC0025FC0346002B63D1364B1B68012B03D16D
:100ABC00354B05221A705BE0344B1B68012B03D1BC
:100ACC00314B06221A7053E0314B1B68012B4FD16E
:100ADC002D4B07221A704BE02A4B1B68012B08D1B7
:100AEC00274B1B684FF47A7202FB03F3294A1360FD
:100AFC0018E0264B1B68012B08D1214B1B684FF4C7
:100B0C007A7202FB03F3244A13600BE0204B1B6840
:100B1C00012B07D11A4B1B684FF47A7202FB03F3BB
:100B2C001E4A1360174B00221A60184B00221A60E1
:100B3C00174B00221A601A4B00221A60194B002224
:100B4C001A6000F099FC0E4B00221A60164B1B68C1
:100B5C00012B0FD10C4B00221A700BE000BF0AE0E6
:100B6C0000BF08E000BF06E000BF04E000BF02E0E9
:100B7C0000BF00E000BF00BF80BD00BFA000002090
:100B8C006000002054000020E400002058000020E9
:100B9C005C00002000000020040000200800002061
:100BAC0050000020B00000209C00002080B500AF59
:100BBC003D4B1B68012B74D13C4B1B68012B22D184
:100BCC003B4B1B68012B1ED100220821394801F038
:100BDC0086FA00224021374801F081FA00220421D4
:100BEC00344801F07CFA00222021324801F077FAD7
:100BFC000221304801F08BFA10212E4801F087FABF
:100C0C00FA2000F0BDFD2C4B1B68012B22D1284B88
:100C1C001B68012B1ED100220821264801F05FFA27
:100C2C0000224021234801F05AFA002202212148D7
:100C3C0001F055FA002210211E4801F050FA04214F
:100C4C001C4801F064FA20211A4801F060FAFA20DD
:100C5C0000F096FD194B1B68012B22D1144B1B681D
:100C6C00012B1ED100220221124801F038FA002279
:100C7C001021104801F033FA002204210D4801F034
:100C8C002EFA002220210B4801F029FA08210948EC
:100C9C0001F03DFA4021074801F039FAFA2000F042
:100CAC006FFD00BF80BD00BFA400002054000020D9
:100CBC005000002000080140580000205C0000207B
:100CCC0080B582B000AF78607B68092B00F2C881D8
:100CDC0001A252F823F000BF0D0D0008630D0008AF
:100CEC00B90D00080F0E0008650E0008BB0E0008B9
:100CFC00110F0008670F0008BD0F00081310000843
:100D0C0000224FF40071D54801F0E9F900224FF4AC
:100D1C008061D24801F0E3F900224FF40061CF4822
:100D2C0001F0DDF900224FF48051CC4801F0D7F9E5
:100D3C0000224FF40051C94801F0D1F900224FF4C0
:100D4C008041C64801F0CBF901224FF40041C34861
:100D5C0001F0C5F9AFE101224FF40071BF4801F079
:100D6C00BEF900224FF48061BC4801F0B8F90022B2
:100D7C004FF40061B94801F0B2F901224FF48051EF
:100D8C00B64801F0ACF901224FF40051B34801F020
:100D9C00A6F901224FF48041B04801F0A0F90122DC
:100DAC004FF40041AD4801F09AF984E100224FF470
:100DBC000071AA4801F093F900224FF48061A74812
:100DCC0001F08DF901224FF40061A44801F087F97C
:100DDC0000224FF48051A14801F081F900224FF418
:100DEC0000519E4801F07BF901224FF480419B4851
:100DFC0001F075F900224FF40041984801F06FF9A9
:100E0C0059E100224FF40071944801F068F9002276
:100E1C004FF48061914801F062F900224FF40061B7
:100E2C008E4801F05CF900224FF480518B4801F0A0
:100E3C0056F901224FF40051884801F050F9012273
:100E4C004FF48041854801F04AF900224FF40041EB
:100E5C00824801F044F92EE101224FF400717F48E1
:100E6C0001F03DF900224FF480617C4801F037F924
:100E7C0000224FF40061794801F031F901224FF45E
:100E8C008051764801F02BF901224FF40051734840
:100E9C0001F025F900224FF48041704801F01FF950
:100EAC0000224FF400416D4801F019F903E10022D2
:100EBC004FF40071694801F012F901224FF480617E
:100ECC00664801F00CF900224FF40061634801F010
:100EDC0006F900224FF48051604801F000F901221C
:100EEC004FF400515D4801F0FAF800224FF48041B4
:100EFC005A4801F0F4F800224FF40041574801F031
:100F0C00EEF8D8E000224FF40071544801F0E7F8F5
:100F1C0001224FF48061514801F0E1F800224FF4B6
:100F2C0000614E4801F0DBF800224FF480514B4831
:100F3C0001F0D5F800224FF40051484801F0CFF8E9
:100F4C0000224FF48041454801F0C9F800224FF4CB
:100F5C000041424801F0C3F8ADE000224FF40071AB
:100F6C003E4801F0BCF800224FF480613B4801F090
:100F7C00B6F800224FF40061384801F0B0F80122B5
:100F8C004FF48051354801F0AAF801224FF400517A
:100F9C00324801F0A4F801224FF480412F4801F0AF
:100FAC009EF801224FF400412C4801F098F882E0A1
:100FBC0000224FF40071294801F091F800224FF4FF
:100FCC008061264801F08BF800224FF40061234821
:100FDC0001F085F800224FF48051204801F07FF891
:100FEC0000224FF400511D4801F079F800224FF413
:100FFC0080411A4801F073F800224FF40041174861
:10100C0001F06DF857E000224FF40071134801F025
:10101C0066F800224FF48061104801F060F800225D
:10102C004FF400610D4801F05AF800224FF4805142
:10103C000A4801F054F801224FF40051074801F01E
:10104C004EF800224FF48041044801F048F8002289
:10105C004FF40041014801F042F82CE00008014037
:10106C0001224FF40071164801F039F801224FF4B7
:10107C008061134801F033F801224FF400611048ED
:10108C0001F02DF801224FF480510D4801F027F8A2
:10109C0001224FF400510A4801F021F801224FF4CB
:1010AC008041074801F01BF801224FF4004104482D
:1010BC0001F015F800BF00BF0837BD4680BD00BF6A
:1010CC000008014080B500AF002202210E4801F05B
:1010DC0006F8002208210C4801F001F80022042136
:1010EC00094800F0FCFF00221021074800F0F7FF30
:1010FC0000224021044800F0F2FF00222021024887
:10110C0000F0EDFF00BF80BD0008014080B582B04B
:10111C0000AF786039607B68032B29D07B68032B88
:10112C0036DC7B68012B03D07B68022B10D02FE0C0
:10113C0001220221374800F0D2FF00220821354855
:10114C0000F0CDFF00220421324800F0C8FF1FE060
:10115C00002202212F4800F0C2FF002208212D4856
:10116C0000F0BDFF012204212A4800F0B8FF0FE077
:10117C0000220221274800F0B2FF01220821254855
:10118C0000F0ADFF00220421224800F0A8FF00BFB0
:10119C003B68032B29D03B68032B36DC3B68012BC7
:1011AC0003D03B68022B10D02FE0012210211948EC
:1011BC0000F095FF00224021164800F090FF00221D
:1011CC002021144800F08BFF1FE000221021114851
:1011DC0000F085FF002240210E4800F080FF012224
:1011EC0020210C4800F07BFF0FE000221021094861
:1011FC0000F075FF01224021064800F070FF00222C
:10120C002021044800F06BFF00BF00BF0837BD462B
:10121C0080BD00BF0008014080B400AF224B1B68AA
:10122C00092B03DC214B00221A6009E01E4B1B68C2
:10123C001F4A82FB03129210DB17D31A1B4A13604E
:10124C00194B19681A4B83FB01239A10CB17D21A2E
:10125C0013469B0013445B00CA1A144B5A60154B7F
:10126C001B68092B03DC114B00229A6009E0114B1F
:10127C001B680F4A82FB03129210DB17D31A0B4A1E
:10128C0093600C4B19680A4B83FB01239A10CB1704
:10129C00D21A13469B0013445B00CA1A034BDA6044
:1012AC0000BFBD4680BC7047640000207400002065
:1012BC00676666666800002080B400AF0E4B1B6842
:1012CC000E4A82FB03129210DB17D31A0C4A1360DE
:1012DC00094B1968094B83FB01239A10CB17D21ABF
:1012EC0013469B0013445B00CA1A054B5A6000BF9F
:1012FC00BD4680BC704700BF600000206766666614
:10130C008400002080B582B000AF78607B68032B2E
:10131C005ED801A252F823F0351300085F130008C1
:10132C0089130008B3130008002210212E4800F086
:10133C00D6FE012220212C4800F0D1FE01224021B2
:10134C00294800F0CCFE01228021274800F0C7FE7E
:10135C003FE001221021244800F0C1FE0022202190
:10136C00214800F0BCFE012240211F4800F0B7FECE
:10137C00012280211C4800F0B2FE2AE0012210213B
:10138C00194800F0ACFE01222021174800F0A7FEFE
:10139C0000224021144800F0A2FE012280211248B4
:1013AC0000F09DFE15E0012210210F4800F097FE81
:1013BC00012220210C4800F092FE012240210A4813
:1013CC0000F08DFE00228021074800F088FE00E02E
:1013DC0000BF064A7B6852F823301846FFF770FCB2
:1013EC0000BF0837BD4680BD000C014074000020D2
:1013FC0080B582B000AF78607B68002B03D07B682F
:10140C00012B15D029E000221021194800F067FEAD
:10141C0001222021164800F062FE012240211448CE
:10142C0000F05DFE01228021114800F058FE14E00E
:10143C00012210210E4800F052FE002220210C48FF
:10144C0000F04DFE01224021094800F048FE012227
:10145C008021074800F043FE00BF064A7B6852F823
:10146C0023301846FFF72CFC00BF0837BD4680BD63
:10147C00000C01408400002080B500AF0122102137
:10148C00094800F02CFE01222021074800F027FE1D
:10149C0001224021044800F022FE01228021024852
:1014AC0000F01DFE00BF80BD000C014080B500AFF8
:1014BC0000F014FB00F016F800F09CF800F04EF869
:1014CC00064801F075FA064B00221A70FEF742FF2F
:1014DC00FFF764F9FFF76AFBF8E700BFE8000020AC
:1014EC00E400002080B590B000AF07F1180328226B
:1014FC000021184601F014FE3B1D00221A605A60B0
:10150C009A60DA601A610223BB610123BB6210236B
:10151C00FB6200237B6307F11803184600F010FEF2
:10152C000346002B01D000F0D1F80F237B60002381
:10153C00BB600023FB6000233B6100237B613B1DF0
:10154C000021184601F07CF80346002B01D000F076
:10155C00BDF800BF4037BD4680BD000080B586B0E9
:10156C0000AF07F1080300221A605A609A60DA6033
:10157C003B4600221A605A601D4B4FF080421A60A5
:10158C001B4B41F63F725A60194B00229A60184B64
:10159C000922DA60164B00221A61154B00229A615F
:1015AC00134801F0B5F90346002B01D000F08EF87A
:1015BC004FF48053BB6007F1080319460C4801F047
:1015CC004BFB0346002B01D000F080F800233B605E
:1015DC0000237B603B461946054801F013FD03468A
:1015EC00002B01D000F072F800BF1837BD4680BD4B
:1015FC00E800002080B586B000AF07F10803002298
:10160C001A605A609A60DA60274B9B69264A43F04D
:10161C0004039361244B9B6903F004037B607B6898
:10162C00214B9B69204A43F0080393611E4B9B6935
:10163C0003F008033B603B6800224FF67E611B48B9
:10164C0000F04DFD0022F021194800F048FD4FF646
:10165C007E63BB600123FB6000233B6102237B6143
:10166C0007F108031946114800F0A8FB0723BB60DB
:10167C000023FB6001233B6107F1080319460C486A
:10168C0000F09CFBF023BB600123FB6000233B615B
:10169C0002237B6107F108031946054800F08EFB15
:1016AC0000BF1837BD4680BD001002400008014045
:1016BC00000C014080B582B000AF786000F0B4F847
:1016CC00FEF73EFD00BF0837BD4680BD80B400AFBD
:1016DC0072B600BFFEE7000080B483B000AF786044
:1016EC007B68084A82FB03129210DB17D31A064A56
:1016FC001360064B00221A6000BF0C37BD4680BC3D
:10170C00704700BF67666666B80000209400002032
:10171C0080B483B000AF78607B68084A82FB031208
:10172C009210DB17D31A064A1360064B00221A607C
:10173C0000BF0C37BD4680BC704700BF676666664D
:10174C00C00000209C00002080B483B000AF786003
:10175C007B68084A82FB03129210DB17D31A064AE5
:10176C001360064B00221A6000BF0C37BD4680BCCC
:10177C00704700BF67666666C4000020A0000020AA
:10178C0080B483B000AF78607B68084A82FB031298
:10179C009210DB17D31A064A1360064B00221A600C
:1017AC0000BF0C37BD4680BC704700BF67666666DD
:1017BC00B4000020A400002080B483B000AF786097
:1017CC007B68084A82FB03129210DB17D31A064A75
:1017DC001360064B00221A6000BF0C37BD4680BC5C
:1017EC00704700BF67666666C8000020A80000202E
:1017FC0080B483B000AF78607B68084A82FB031228
:10180C009210DB17D31A064A1360064B00221A609B
:10181C0000BF0C37BD4680BC704700BF676666666C
:10182C00D0000020B000002080B400AF414B1B68FA
:10183C00002B0BDB3F4B1B68013B3E4A13603D4BBF
:10184C001B68002B02D13C4B01221A603B4B1B68DE
:10185C00002B0BDB394B1B68013B384A1360374BB1
:10186C001B68002B02D1364B01221A60354B1B68CA
:10187C00002B0BDB334B1B68013B324A1360314BA3
:10188C001B68002B02D1304B01221A602F4B1B68B6
:10189C00002B0BDB2D4B1B68013B2C4A13602B4B95
:1018AC001B68002B02D12A4B01221A60294B1B68A2
:1018BC00002B0BDB274B1B68013B264A1360254B87
:1018CC001B68002B02D1244B01221A60234B1B688E
:1018DC00002B0BDB214B1B68013B204A13601F4B79
:1018EC001B68002B02D11E4B01221A601D4B1B687A
:1018FC00002B0BDB1B4B1B68013B1A4A1360194B6B
:10190C001B68002B02D1184B01221A60174B1B6865
:10191C00002B0BDB154B1B68013B144A1360134B5C
:10192C001B68002B02D1124B01221A6000BFBD466E
:10193C0080BC7047B800002094000020BC00002040
:10194C0098000020C00000209C000020C400002053
:10195C00A0000020B4000020A4000020C80000203B
:10196C00A8000020CC000020AC000020D0000020FB
:10197C00B000002080B485B000AF154B9B69144AB1
:10198C0043F001039361124B9B6903F00103BB60AD
:10199C00BB680F4BDB690E4A43F08053D3610C4B91
:1019AC00DB6903F080537B607B680A4B5B68FB60F0
:1019BC00FB6823F0E063FB60FB6843F08063FB6033
:1019CC00044AFB68536000BF1437BD4680BC7047A7
:1019DC00001002400000014080B584B000AF786078
:1019EC007B681B68B3F1804F13D10C4BDB690B4A3E
:1019FC0043F00103D361094BDB6903F00103FB6086
:101A0C00FB68002200211C2000F0A1F91C2000F032
:101A1C00BAF900BF1037BD4680BD00BF00100240B0
:101A2C0080B400AFFEE780B400AFFEE780B400AF37
:101A3C00FEE780B400AFFEE780B400AFFEE780B4F1
:101A4C0000AF00BFBD4680BC704780B400AF00BF84
:101A5C00BD4680BC704780B400AF00BFBD4680BCA3
:101A6C00704780B500AF00F07FF800BF80BD00006C
:101A7C0080B500AF024800F0E7FF00BF80BD00BF9B
:101A8C00E800002080B400AF00BFBD4680BC7047AA
:101A9C000C480D490D4A002302E0D458C4500433BD
:101AAC00C4188C42F9D30A4A0A4C002301E0136093
:101ABC000432A242FBD3FFF7E5FF01F00DFBFFF769
:101ACC00F5FC704700000020180000207C31000855
:101ADC001800002034010020FEE7000080B500AFA4
:101AEC00084B1B68074A43F010031360032000F0F7
:101AFC0023F90F2000F008F8FFF73CFF00231846ED
:101B0C0080BD00BF0020024080B582B000AF78607D
:101B1C00124B1A68124B1B7819464FF47A73B3FBAD
:101B2C00F1F3B2FBF3F3184600F03BF90346002B3C
:101B3C0001D001230EE07B680F2B0AD800227968B4
:101B4C004FF0FF3000F003F9064A7B681360002366
:101B5C0000E0012318460837BD4680BD0C0000206C
:101B6C00140000201000002080B400AF054B1B783F
:101B7C001A46054B1B681344034A136000BFBD464D
:101B8C0080BC7047140000203001002080B400AFEE
:101B9C00024B1B681846BD4680BC704730010020C4
:101BAC0080B485B000AF78607B6803F00703FB60FE
:101BBC000C4BDB68BB60BA684FF6FF031340BB608D
:101BCC00FB681A02BB68134343F0BF6343F4003352
:101BDC00BB60044ABB68D36000BF1437BD4680BCF1
:101BEC00704700BF00ED00E080B400AF044BDB6831
:101BFC001B0A03F007031846BD4680BC704700BFA4
:101C0C0000ED00E080B483B000AF0346FB7197F9A0
:101C1C000730002B0BDBFB7903F01F02064997F909
:101C2C0007305B09012000FA02F241F8232000BFC3
:101C3C000C37BD4680BC704700E100E080B483B037
:101C4C0000AF03463960FB7197F90730002B0ADBB4
:101C5C003B68DAB20C4997F907301201D2B20B4447
:101C6C0083F800230AE03B68DAB20849FB7903F0F9
:101C7C000F03043B1201D2B20B441A7600BF0C378F
:101C8C00BD4680BC704700BF00E100E000ED00E005
:101C9C0080B489B000AFF860B9607A60FB6803F07B
:101CAC000703FB61FB69C3F10703042B28BF042363
:101CBC00BB61FB690433062B02D9FB69033B00E0D3
:101CCC0000237B614FF0FF32BB6902FA03F3DA4366
:101CDC00BB681A407B699A404FF0FF317B6901FA6F
:101CEC0003F3D9437B680B40134318462437BD4696
:101CFC0080BC704780B582B000AF78607B68013BD8
:101D0C00B3F1807F01D301230FE00A4A7B68013BCA
:101D1C0053600F214FF0FF30FFF790FF054B00226F
:101D2C009A60044B07221A60002318460837BD46F8
:101D3C0080BD00BF10E000E080B582B000AF7860DD
:101D4C007868FFF72DFF00BF0837BD4680BD80B512
:101D5C0086B000AF0346B9607A60FB7300237B61E9
:101D6C00FFF742FF78617A68B9687869FFF790FFEE
:101D7C00024697F90F3011461846FFF75FFF00BF78
:101D8C001837BD4680BD80B582B000AF0346FB71ED
:101D9C0097F907301846FFF735FF00BF0837BD46E7
:101DAC0080BD80B582B000AF78607868FFF7A2FF85
:101DBC00034618460837BD4680BD000080B48BB082
:101DCC0000AF7860396000237B6200233B6248E1FE
:101DDC0001227B6A02FA03F3FB613B681B68FA6918
:101DEC001340BB61BA69FB699A4240F037813B688A
:101DFC005B68A34A93425ED0A14A934275D8A14A2C
:101E0C00934258D09F4A93426FD89F4A934252D0E4
:101E1C009D4A934269D89D4A93424CD09B4A934227
:101E2C0063D89B4A934246D0994A93425DD8122B71
:101E3C002AD8122B59D801A252F823F0C31E00083D
:101E4C009D1E0008AF1E0008F11E0008F71E0008BA
:101E5C00F71E0008F71E0008F71E0008F71E000802
:101E6C00F71E0008F71E0008F71E0008F71E0008F2
:101E7C00F71E0008F71E0008F71E0008F71E0008E2
:101E8C00A51E0008B91E0008824A934213D02CE00C
:101E9C003B68DB683B6229E03B68DB6804333B62F0
:101EAC0024E03B68DB6808333B621FE03B68DB687F
:101EBC000C333B621AE03B689B68002B02D1042375
:101ECC003B6213E03B689B68012B05D108233B6206
:101EDC007B68FA691A6109E008233B627B68FA693E
:101EEC005A6103E000233B6200E000BFBB69FF2B9B
:101EFC0001D87B6801E07B6804337B61BB69FF2BF5
:101F0C0002D87B6A9B0002E07B6A083B9B003B612A
:101F1C007B691A680F213B6901FA03F3DB431A4012
:101F2C00396A3B6901FA03F31A437B691A603B680F
:101F3C005B6803F08053002B00F09080564B9B693C
:101F4C00554A43F001039361534B9B6903F0010322
:101F5C00BB60BB68514A7B6A9B08023352F8233042
:101F6C00FB607B6A03F003039B000F2202FA03F36E
:101F7C00DB43FA681340FB607B68494A93420DD0FF
:101F8C007B68484A934207D07B68474A934201D109
:101F9C00022304E0032302E0012300E000237A6A19
:101FAC0002F0030292009340FA681343FB603B4932
:101FBC007B6A9B080233FA6841F823203B685B6814
:101FCC0003F48033002B06D0384B1A683749BB69B1
:101FDC0013430B6006E0354B1A68BB69DB4333498E
:101FEC0013400B603B685B6803F40033002B06D096
:101FFC002E4B5A682D49BB6913434B6006E02B4BA3
:10200C005A68BB69DB43294913404B603B685B68EA
:10201C0003F48013002B06D0244B9A682349BB6928
:10202C0013438B6006E0214B9A68BB69DB431F4965
:10203C0013408B603B685B6803F40013002B06D0E5
:10204C001A4BDA681949BB691343CB6006E0174B8E
:10205C00DA68BB69DB4315491340CB607B6A0133FB
:10206C007B623B681A687B6A22FA03F3002B7FF4CD
:10207C00AFAE00BF00BF2C37BD4680BC704700BF61
:10208C00000032100000311000002210000021105E
:10209C00000012100000111000100240000001405E
:1020AC0000080140000C01400010014000040140F8
:1020BC0080B485B000AF78600B467B807B689A68F3
:1020CC007B881340002B02D00123FB7301E000231B
:1020DC00FB73FB7B18461437BD4680BC704780B43D
:1020EC0083B000AF78600B467B8013467B707B78A7
:1020FC00002B03D07A887B681A6103E07B881A0472
:10210C007B681A6100BF0C37BD4680BC704780B439
:10211C0085B000AF78600B467B807B68DB68FB602A
:10212C007A88FB6813401A04FB68D9437B880B4000
:10213C001A437B681A6100BF1437BD4680BC7047D8
:10214C0080B586B000AF78607B68002B01D101238D
:10215C006CE27B681B6803F00103002B00F08780A6
:10216C00924B5B6803F00C03042B0CD08F4B5B6819
:10217C0003F00C03082B12D18C4B5B6803F48033F7
:10218C00B3F5803F0BD1894B1B6803F40033002B54
:10219C006CD07B685B68002B68D1012346E27B68BE
:1021AC005B68B3F5803F06D1804B1B687F4A43F4D4
:1021BC00803313602EE07B685B68002B0CD17B4B6B
:1021CC001B687A4A23F480331360784B1B68774A78
:1021DC0023F4802313601DE07B685B68B3F5A02FAC
:1021EC000CD1724B1B68714A43F4802313606F4B04
:1021FC001B686E4A43F4803313600BE06B4B1B6817
:10220C006A4A23F480331360684B1B68674A23F4D3
:10221C00802313607B685B68002B13D0FFF7B6FC40
:10222C00386108E0FFF7B2FC02463B69D31A642B15
:10223C0001D90323FAE15D4B1B6803F40033002B37
:10224C00F0D014E0FFF7A2FC386108E0FFF79EFC29
:10225C0002463B69D31A642B01D90323E6E1534BA5
:10226C001B6803F40033002BF0D100E000BF7B6847
:10227C001B6803F00203002B63D04C4B5B6803F02C
:10228C000C03002B0BD0494B5B6803F00C03082BA1
:10229C001CD1464B5B6803F48033002B16D1434BA7
:1022AC001B6803F00203002B05D07B681B69012B14
:1022BC0001D00123BAE13D4B1B6823F0F8027B6887
:1022CC005B69DB00394913430B603AE07B681B699F
:1022DC00002B20D0364B01221A60FFF757FC3861D7
:1022EC0008E0FFF753FC02463B69D31A022B01D9D5
:1022FC0003239BE12D4B1B6803F00203002BF0D052
:10230C002A4B1B6823F0F8027B685B69DB002749CA
:10231C0013430B6015E0264B00221A60FFF736FCC6
:10232C00386108E0FFF732FC02463B69D31A022BF6
:10233C0001D903237AE11D4B1B6803F00203002B28
:10234C00F0D17B681B6803F00803002B3AD07B6844
:10235C009B69002B19D0174B01221A60FFF716FC52
:10236C00386108E0FFF712FC02463B69D31A022BD6
:10237C0001D903235AE10D4B5B6A03F00203002BD6
:10238C00F0D0012000F0A6FA1CE00A4B00221A60E3
:10239C00FFF7FCFB38610FE0FFF7F8FB02463B69E7
:1023AC00D31A022B08D9032340E100BF00100240CE
:1023BC0000004242800442429E4B5B6A03F00203DF
:1023CC00002BE9D17B681B6803F00403002B00F0A1
:1023DC00A6800023FB75974BDB6903F08053002B21
:1023EC000DD1944BDB69934A43F08053D361914BED
:1023FC00DB6903F08053BB60BB680123FB758E4B1C
:10240C001B6803F48073002B18D18B4B1B688A4A12
:10241C0043F480731360FFF7B9FB386108E0FFF7F2
:10242C00B5FB02463B69D31A642B01D90323FDE0AB
:10243C00814B1B6803F48073002BF0D07B68DB6846
:10244C00012B06D17B4B1B6A7A4A43F001031362C2
:10245C002DE07B68DB68002B0CD1764B1B6A754A30
:10246C0023F001031362734B1B6A724A23F00403BB
:10247C0013621CE07B68DB68052B0CD16D4B1B6A6F
:10248C006C4A43F0040313626A4B1B6A694A43F0BB
:10249C00010313620BE0674B1B6A664A23F00103CE
:1024AC001362644B1B6A634A23F0040313627B6858
:1024BC00DB68002B15D0FFF769FB38610AE0FFF7EA
:1024CC0065FB02463B69D31A41F28832934201D92B
:1024DC000323ABE0574B1B6A03F00203002BEED037
:1024EC0014E0FFF753FB38610AE0FFF74FFB02469D
:1024FC003B69D31A41F28832934201D9032395E008
:10250C004C4B1B6A03F00203002BEED1FB7D012B1D
:10251C0005D1484BDB69474A23F08053D3617B6874
:10252C00DB69002B00F08180424B5B6803F00C03ED
:10253C00082B61D07B68DB69022B46D13F4B002214
:10254C001A60FFF723FB386108E0FFF71FFB024618
:10255C003B69D31A022B01D9032367E0354B1B6867
:10256C0003F00073002BF0D17B681B6AB3F5803F3E
:10257C0008D1304B5B6823F400327B689B682D4993
:10258C0013434B602B4B5B6823F474127B68196A02
:10259C007B685B6A0B43274913434B60274B012233
:1025AC001A60FFF7F3FA386108E0FFF7EFFA02461A
:1025BC003B69D31A022B01D9032337E01D4B1B684F
:1025CC0003F00073002BF0D02FE01C4B00221A609C
:1025DC00FFF7DCFA386108E0FFF7D8FA02463B69EE
:1025EC00D31A022B01D9032320E0124B1B6803F0F2
:1025FC000073002BF0D118E07B68DB69012B01D153
:10260C00012313E00B4B5B68FB60FB6803F4803227
:10261C007B681B6A9A4206D1FB6803F470127B68D4
:10262C005B6A9A4201D0012300E000231846183758
:10263C00BD4680BD00100240007000406000424268
:10264C0080B584B000AF786039607B68002B01D115
:10265C000123D0E06A4B1B6803F007033A689A42E7
:10266C0010D9674B1B6823F0070265493B6813437D
:10267C000B60634B1B6803F007033A689A4201D066
:10268C000123B8E07B681B6803F00203002B20D009
:10269C007B681B6803F00403002B05D0594B5B6867
:1026AC00584A43F4E06353607B681B6803F00803EB
:1026BC00002B05D0534B5B68524A43F46053536074
:1026CC00504B5B6823F0F0027B689B684D491343C9
:1026DC004B607B681B6803F00103002B40D07B68C8
:1026EC005B68012B07D1474B1B6803F40033002BAD
:1026FC0015D101237FE07B685B68022B07D1414B2E
:10270C001B6803F00073002B09D1012373E03D4BD0
:10271C001B6803F00203002B01D101236BE0394B42
:10272C005B6823F003027B685B68364913434B609C
:10273C00FFF72CFAF8600AE0FFF728FA0246FB686C
:10274C00D31A41F28832934201D9032353E02D4B23
:10275C005B6803F00C027B685B689B009A42EBD1D0
:10276C00274B1B6803F007033A689A4210D2244B9C
:10277C001B6823F0070222493B6813430B60204B74
:10278C001B6803F007033A689A4201D0012332E038
:10279C007B681B6803F00403002B08D0194B5B68A3
:1027AC0023F4E0627B68DB68164913434B607B685B
:1027BC001B6803F00803002B09D0124B5B6823F451
:1027CC0060527B681B69DB000E4913434B6000F0C1
:1027DC0021F802460B4B5B681B0903F00F030A49F7
:1027EC00CB5C22FA03F3094A1360094B1B681846A9
:1027FC00FFF78AF9002318461037BD4680BD00BF8D
:10280C000020024000100240643100080C0000203F
:10281C001000002090B48AB000AF2A4B3C1D0FCBA7
:10282C0084E80F0040F201233B800023FB6100236E
:10283C00BB6100237B6200237B6100233B62224B44
:10284C005B68FB61FB6903F00C03042B02D0082BC3
:10285C0003D02DE01D4B3B622DE0FB699B0C03F07C
:10286C000F0307F12802134413F8243C7B61FB6926
:10287C0003F48033002B13D0134B5B685B0C03F019
:10288C00010307F12802134413F8283CBB617B6950
:10289C000E4A02FB03F2BB69B2FBF3F37B6204E06A
:1028AC007B690B4A02FB03F37B627B6A3B6202E0AF
:1028BC00064B3B6200BF3B6A18462837BD4690BCAE
:1028CC00704700BF543100080010024000127A001B
:1028DC0000093D0080B485B000AF78600A4B1B68DE
:1028EC000A4AA2FB03235B0A7A6802FB03F3FB6030
:1028FC0000BFFB685A1EFA60002BF9D100BF00BF65
:10290C001437BD4680BC70470C000020D34D6210BC
:10291C0080B582B000AF78607B68002B01D10123B9
:10292C0041E07B6893F83D30DBB2002B06D17B682D
:10293C00002283F83C207868FFF74EF87B6802226F
:10294C0083F83D207B681A687B680433194610466F
:10295C0000F06AFA7B68012283F846207B6801222A
:10296C0083F83E207B68012283F83F207B6801229C
:10297C0083F840207B68012283F841207B68012288
:10298C0083F842207B68012283F843207B68012274
:10299C0083F844207B68012283F845207B68012260
:1029AC0083F83D20002318460837BD4680BD000043
:1029BC0080B485B000AF78607B6893F83D30DBB2B3
:1029CC00012B01D0012335E07B68022283F83D20E6
:1029DC007B681B68DA687B681B6842F00102DA606E
:1029EC007B681B68164A934209D07B681B68B3F15D
:1029FC00804F04D07B681B68124A934211D17B68CC
:102A0C001B689B6803F00703FB60FB68062B10D068
:102A1C007B681B681A687B681B6842F001021A60AD
:102A2C0007E07B681B681A687B681B6842F0010230
:102A3C001A60002318461437BD4680BC704700BF8F
:102A4C00002C01400004004080B582B000AF7860DB
:102A5C007B681B681B6903F00203022B22D17B6885
:102A6C001B68DB6803F00203022B1BD17B681B681D
:102A7C006FF002021A617B6801221A777B681B686F
:102A8C009B6903F00303002B03D0786800F0B1F9C5
:102A9C0005E0786800F0A4F9786800F0B3F97B6879
:102AAC0000221A777B681B681B6903F00403042B54
:102ABC0022D17B681B68DB6803F00403042B1BD159
:102ACC007B681B686FF004021A617B6802221A771C
:102ADC007B681B689B6903F44073002B03D07868F8
:102AEC0000F087F905E0786800F07AF9786800F072
:102AFC0089F97B6800221A777B681B681B6903F0D5
:102B0C000803082B22D17B681B68DB6803F00803E1
:102B1C00082B1BD17B681B686FF008021A617B685D
:102B2C0004221A777B681B68DB6903F00303002B14
:102B3C0003D0786800F05DF905E0786800F050F992
:102B4C00786800F05FF97B6800221A777B681B6855
:102B5C001B6903F01003102B22D17B681B68DB6808
:102B6C0003F01003102B1BD17B681B686FF0100255
:102B7C001A617B6808221A777B681B68DB6903F48F
:102B8C004073002B03D0786800F033F905E07868C7
:102B9C0000F026F9786800F035F97B6800221A7786
:102BAC007B681B681B6903F00103012B0ED17B684A
:102BBC001B68DB6803F00103012B07D17B681B68E2
:102BCC006FF001021A617868FEF774FD7B681B6870
:102BDC001B6903F08003802B0ED17B681B68DB68BC
:102BEC0003F08003802B07D17B681B686FF0800299
:102BFC001A61786800F067FA7B681B681B6903F040
:102C0C004003402B0ED17B681B68DB6803F040034C
:102C1C00402B07D17B681B686FF040021A61786803
:102C2C0000F0F9F87B681B681B6903F02003202B6C
:102C3C000ED17B681B68DB6803F02003202B07D1C7
:102C4C007B681B686FF020021A61786800F032FA1A
:102C5C0000BF0837BD4680BD80B584B000AF78603A
:102C6C0039607B6893F83C30012B01D10223B3E02F
:102C7C007B68012283F83C207B68022283F83D208C
:102C8C007B681B689B68FB60FB6823F07703FB6029
:102C9C00FB6823F47F43FB607B681B68FA689A60CF
:102CAC003B681B68B3F5005F3ED0B3F5005F00F2E4
:102CBC008780B3F5805F00F08580B3F5805F7FD8A7
:102CCC00702B1AD0702B7BD8602B50D0602B77D800
:102CDC00502B3CD0502B73D8402B58D0402B6FD856
:102CEC00302B64D0302B6BD8202B60D0202B67D8A6
:102CFC00002B5CD0102B5AD062E07B6818683B68C4
:102D0C0099683B685A683B68DB6800F05CF97B6843
:102D1C001B689B68FB60FB6843F07703FB607B6878
:102D2C001B68FA689A604EE07B6818683B68996883
:102D3C003B685A683B68DB6800F045F97B681B68A8
:102D4C009A687B681B6842F480429A603BE07B681F
:102D5C0018683B6859683B68DB681A4600F0BCF899
:102D6C007B681B685021184600F013F92BE07B6838
:102D7C0018683B6859683B68DB681A4600F0DAF85B
:102D8C007B681B686021184600F003F91BE07B6828
:102D9C0018683B6859683B68DB681A4600F09CF879
:102DAC007B681B684021184600F0F3F80BE07B6849
:102DBC001A683B681B681946104600F0EAF802E0F6
:102DCC0000BF00E000BF7B68012283F83D207B68D8
:102DDC00002283F83C20002318461037BD4680BDE6
:102DEC0080B483B000AF786000BF0C37BD4680BCA8
:102DFC00704780B483B000AF786000BF0C37BD461D
:102E0C0080BC704780B483B000AF786000BF0C37D3
:102E1C00BD4680BC704780B483B000AF786000BF03
:102E2C000C37BD4680BC704780B485B000AF78606D
:102E3C0039607B681B68FB607B68254A934207D02E
:102E4C007B68B3F1804F03D07B68224A934208D150
:102E5C00FB6823F07003FB603B685B68FA68134304
:102E6C00FB607B681A4A934207D07B68B3F1804FB2
:102E7C0003D07B68174A934208D1FB6823F4407354
:102E8C00FB603B68DB68FA681343FB60FB6823F06C
:102E9C0080023B685B691343FB607B68FA681A60CD
:102EAC003B689A687B68DA623B681A687B689A624E
:102EBC007B68074A934203D13B681A697B681A63A3
:102ECC007B6801225A6100BF1437BD4680BC704735
:102EDC00002C01400004004080B487B000AFF860C3
:102EEC00B9607A60FB681B6A7B61FB681B6A23F024
:102EFC000102FB681A62FB689B693B613B6923F02A
:102F0C00F0033B617B681B013A6913433B617B69AE
:102F1C0023F00A037B617A69BB6813437B61FB680E
:102F2C003A699A61FB687A691A6200BF1C37BD4620
:102F3C0080BC704780B487B000AFF860B9607A602D
:102F4C00FB681B6A23F01002FB681A62FB689B6922
:102F5C007B61FB681B6A3B617B6923F470437B617B
:102F6C007B681B037A6913437B613B6923F0A003E5
:102F7C003B61BB681B013A6913433B61FB687A698F
:102F8C009A61FB683A691A6200BF1C37BD4680BC67
:102F9C00704780B485B000AF786039607B689B68FF
:102FAC00FB60FB6823F07003FB603A68FB6813431B
:102FBC0043F00703FB607B68FA689A6000BF143724
:102FCC00BD4680BC704780B487B000AFF860B96074
:102FDC007A603B60FB689B687B617B6923F47F4371
:102FEC007B613B681A027B681A43BB6813437A699E
:102FFC0013437B61FB687A699A6000BF1C37BD463E
:10300C0080BC704780B485B000AF786039607B6855
:10301C0093F83C30012B01D1022341E07B68012263
:10302C0083F83C207B68022283F83D207B681B6878
:10303C005B68FB607B681B689B68BB60FB6823F06C
:10304C007003FB603B681B68FA681343FB607B688A
:10305C001B68FA685A607B681B68144A934209D053
:10306C007B681B68B3F1804F04D07B681B68104AE7
:10307C0093420CD1BB6823F08003BB603B685B6858
:10308C00BA681343BB607B681B68BA689A607B683C
:10309C00012283F83D207B68002283F83C2000232A
:1030AC0018461437BD4680BC704700BF002C014049
:1030BC000004004080B483B000AF786000BF0C37D0
:1030CC00BD4680BC704780B483B000AF786000BF51
:1030DC000C37BD4680BC704770B500260C4D0D4CAE
:1030EC00641BA410A64209D100F022F800260A4D58
:1030FC000A4C641BA410A64205D170BD55F8043BC4
:10310C0098470136EEE755F8043B98470136F2E74D
:10311C0074310008743100087431000878310008EB
:10312C0003460244934200D1704703F8011BF9E7B0
:10313C00F8B500BFF8BC08BC9E467047F8B500BF98
:08314C00F8BC08BC9E46704768
:1031540002030405060708090A0B0C0D0E0F1010D4
:103164000000000000000000010203040607080933
:04317400310100081D
:043178000D0100083D
:10317C0088130000D0070000B80B00000024F400F6
:08318C0010000000010000002A
:0400000508001A9D38
:00000001FF
